:020000040000FA
:060000000A128A110C280F
:10000800FE00030EF8000A08F9000A128A11B52E3C
:100018000A128A110F280A128A11F4260A128A1162
:10002800FC00BB01BC01BD01BE01BF01C001C10193
:10003800C201C301C401C501C601C701FA01FB0120
:1000480083010A128A11282883120313B9010A129C
:100058008A11C0240A128A110A128A11C9260A12A0
:100068008A110A128A118B260A128A118312031323
:10007800A6013330B5003508A70000300A128A11EE
:1000880046250A128A11E83083120313A0000330B0
:10009800A1000A128A1125260A128A1100300A12B2
:1000A8008A11E2260A128A1159280A128A116A222A
:1000B8000A128A1183120313B5003508BA009C2866
:1000C80000300A128A11E2260A128A11CD28193044
:1000D8000A128A11E2260A128A11CD2832300A122F
:1000E8008A11E2260A128A11CD284B300A128A1187
:1000F800E2260A128A11CD2864300A128A11E226F1
:100108000A128A11CD280A128A11E8250A128A11C0
:10011800CD280A128A1108260A128A11CD2807103A
:10012800CD280714CD28CD28CD28CD28CD28CD28F9
:100138003A08B500B6013608003A0319A428CD28B4
:100148003508233A03199528093A031993281A3AC6
:1001580003196428013A03196B28033A0319722812
:10016800013A03197928073A0319CD28013A0319E6
:10017800CD28023A0319CD280F3A0319CD28793A28
:1001880003198028023A03198728073A03198D288A
:10019800CD28831203133A080319D328D4285928E1
:1001A8000A128A11EA260A128A11003A031DDD286A
:1001B800DE28EC2883120313A6012230B500350887
:1001C800A70000300A128A1146250A128A11F92856
:1001D80083120313A6011130B5003508A7000030BB
:1001E8000A128A1146250A128A1183120313A601DC
:1001F8004430B5003508A70001300A128A11462597
:100208000A128A110C3083120313B5003508A900AD
:100218000A128A11EA260A128A1183120313B600F7
:10022800B7013608AA003708AB000330B800380811
:10023800AC0001300A128A117A210A128A1183123B
:100248000313071C2829292938290E30B500350839
:10025800A6005830B6003608A70000300A128A11E6
:1002680046250A128A1149290E3083120313B50054
:100278003508A6005530B6003608A70000300A1227
:100288008A1146250A128A11492983120313A901E2
:100298004408B500B6013508AA003608AB0002309C
:1002A800B7003708AC0000300A128A117A210A1206
:1002B8008A11023083120313B5003508A9004508D6
:1002C800B600B7013608AA003708AB000230B800FC
:1002D8003808AC0000300A128A117A210A128A11F1
:1002E8005928592859280A128A110C2883120313ED
:1002F800B000AB1B80298229013083290030AD0072
:100308002D08B200320803198A298B299129AA09D4
:10031800AB09AA0A0319AB0A91292908AD002D08CF
:10032800A30030080A128A11A0260A128A11103076
:1003380083120313B3002730B4000530AD002D0835
:10034800B100D529831203133408A1003308A00093
:100358002B08A3002A08A2000A128A1188230A126D
:100368008A118312031320082104031DBC29BD2907
:10037800EF290130B102C129EF290A30A00000306D
:10038800A1003408A3003308A2000A128A118823A6
:100398000A128A11831203132108B4002008B3003B
:1003A800D5293408803AFF0080307F02031DDE29FA
:1003B800013033020318E129E229A629EF29EF29A0
:1003C80020300A128A11B6250A128A1101308312C6
:1003D8000313AC02EF298312031331083207AD006F
:1003E800AE01AE0D2E08803AAF0080302F02031DFB
:1003F800FF292C082D020318022A032A0D2A02308D
:10040800831203132C0203180A2A0B2AE4290D2A43
:100418000D2A8312031332080319132A142A1B2ADC
:100428002D300A128A11B6250A128A111B2A831244
:1004380003133408A1003308A0002B08A3002A08DE
:10044800A2000A128A1188230A128A11831203133E
:100458002008303E0A128A11B6250A128A11831220
:1004680003133408A1003308A0002B08A3002A08AE
:10047800A2000A128A11FB230A128A11831203139B
:100488002108AB002008AA000A30A0000030A10013
:100498003408A3003308A2000A128A1188230A121A
:1004A8008A11831203132108B4002008B30034080A
:1004B800803AFF0080307F02031D642A0130330236
:1004C8000318672A682A1B2A692A0800831203135B
:1004D800AA01AB0104302B02031C732A742A762A62
:1004E800D42AD42A0130A3002B0A7C2A0310A30D96
:1004F800FF3E031D7A2A2308FF3A8600AC01043028
:100508002C02031C882A892A8B2AC92AC92A060987
:10051800A300A401A4092C0AA5001030A6000030ED
:10052800A700992A0310A60DA70DA50B962A230844
:100538002605A80024082705A90028082904031966
:10054800A62AA72ABE2A2B08A30002300310A30D4F
:10055800FF3E031DAA2A01302307A4002C08240704
:1005680084000A128A1160240A128A11A50025083B
:10057800AA00BE2A0130A3002308AC0704302C02CD
:10058800031CC72AC82A8B2AC92A0130A3002308BA
:10059800AB0704302B02031CD22AD32A762AD42A8A
:1005A8002A08031DD82AD92AFC2A0A128A115B268E
:1005B8000A128A11003A0319E22AE32AEA2A433086
:1005C80083120313A3002308AA00FC2A0A128A1123
:1005D80041260A128A11003A0319F32AF42AFC2A3E
:1005E800443083120313A3002308AA00FC2AFC2A20
:1005F800831203132A08002B080083120313A20096
:1006080008122208A00004300310A00CFF3E031DAE
:10061800082B0F302005A1000808F03921048800B4
:10062800881222030319192B1A2B212B02302206B8
:10063800031D1F2B202B2C2B212B0330831203137C
:10064800A1009730A000A00B272BA10B272B342B40
:100658000C3083120313A000A00B302B0000342BA6
:10066800831203138816F0302205A00020302006DC
:10067800031D3F2B402B5C2B08122208A0000430DE
:100688000310A00CFF3E031D442B0F302005A100D2
:100698000808F0392104880088120C3083120313EB
:1006A800A000A00B552B00008312031388165C2BA7
:1006B80008120F302205A0000808F039200488002D
:1006C800881222030319692B6A2B712B0230220628
:1006D800031D6F2B702B7C2B712B0330831203139C
:1006E800A1009730A000A00B772BA10B772B842BB0
:1006F8000C3083120313A000A00B802B0000842B66
:10070800831203138816080083120313A601A11F7E
:100718008E2B8F2B972BA009A109A00A0319A10AD8
:10072800A601A60A972BA31F9A2B9B2BA52BA209E0
:10073800A309A20A0319A30A0130A4002408A606E3
:10074800A52BA701A801200821040319AC2BAD2B68
:10075800EA2BA501A50ABC2B01300310A00DA10DA1
:10076800FF3E031DB12B0130A4002408A507BC2BB4
:10077800A11FBF2BC02BB02BC22BC22B01300310E3
:10078800A70DA80DFF3E031DC32B21082302031D3F
:10079800CF2B20082202031CD22BD32BDB2B2008C3
:1007A800A2022108031CA303A3022714DB2B013098
:1007B8000310A10CA00CFF3E031DDC2B0130A50289
:1007C800031DE72BE82BC22BEA2BEA2B260803197B
:1007D800EE2BEF2BF52BA709A809A70A0319A80ADE
:1007E800F52B2808A1002708A000FA2B080083127F
:1007F8000313A601A31F012C022C0A2CA209A3098A
:10080800A20A0319A30AA601A60A0A2CA11F0D2CE5
:100818000E2C142CA009A109A00A0319A10A142C52
:10082800200821040319192C1A2C4F2CA501A50AFC
:10083800292C01300310A00DA10DFF3E031D1E2C15
:100848000130A4002408A507292CA11F2C2C2D2C2D
:100858001D2C2F2C2F2C21082302031D352C20089A
:100868002202031C382C392C402C2008A202210813
:10087800031CA303A302402C01300310A10CA00CFD
:10088800FF3E031D412C0130A502031D4C2C4D2CAD
:100898002F2C4F2C4F2C26080319532C542C5A2C30
:1008A800A209A309A20A0319A30A5A2C2308A10022
:1008B8002208A0005F2C080004308A000408840A7B
:1008C80082070034313432343334413434343534EB
:1008D8003634423437343834393443342A343034B3
:1008E80023344434203420342034203420344C340D
:1008F80049344734413444344F342034203420348C
:100908002034203400342034203420344434453416
:1009180053344C3449344734413444344F3420340C
:10092800203420342034003443346F346E3474342B
:1009380072346F346C34653420344D346F3474340D
:100948006F34723420342034003420345634453423
:100958004C344F34433449344434413444344534BA
:100968002034203420342034253400343C342034DE
:10097800003420343E340034643083120313A00062
:100988000030A1000A128A1125260A128A1183163C
:10099800031308108810081188110812881264308F
:1009A80083120313A0000030A1000A128A11252621
:1009B8000A128A1183120313881628300A128A1120
:1009C80001230A128A110C300A128A1101230A1211
:1009D8008A1101300A128A1101230A128A1102307F
:1009E8000A128A1101230A128A116430831203132E
:1009F800A0000030A1000A128A1125260A128A11C5
:100A080008007008710403190A2D0B2D402DF501FB
:100A1800F50A1A2D01300310F00DF10DFF3E031DEC
:100A28000F2D0130F4007408F5071A2DF11F1D2D44
:100A38001E2D0E2D202D202D71087302031D262D2D
:100A480070087202031C292D2A2D312D7008F2021C
:100A58007108031CF303F302312D01300310F10C6C
:100A6800F00CFF3E031D322D0130F502031D3D2D14
:100A78003E2D202D402D402D7308F1007208F00006
:100A8800452D080083120313AA002608A800280889
:100A9800A9002608A8002808A3002A080A128A1113
:100AA800A0260A128A11712D8312031327088400C5
:100AB8000A128A1160240A128A110A128A11B625AA
:100AC8000A128A11013083120313A8002808A70705
:100AD8000130A8002808A907712D831203132708DD
:100AE80084000A128A1160240A128A11003A031D2E
:100AF8007E2D7F2D582D802D080001308312031381
:100B0800BB070318BC0A0030BC076430F000003093
:100B1800F1003C08F3003B08F2000A128A1105258F
:100B28000A128A11710883120313BC007008BB00F3
:100B38000A128A11EF260A128A11F600F7017708BD
:100B4800831203133C02031DAB2D76083B02031CE2
:100B5800AE2DB22D831203138714B52D8312031300
:100B68008710080083120313A20008162208A000A9
:100B780004300310A00CFF3E031DBD2D0F302005CF
:100B8800A1000808F0392104880088120C3083126B
:100B98000313A000A00BCE2D0000831203138816A8
:100BA80008160F302205A0000808F0392004880034
:100BB80088120C3083120313A000A00BE12D000053
:100BC8008312031388160800963083120313A000BB
:100BD8000030A1000A128A1125260A128A116430EF
:100BE800831203134302031CFA2DFB2DFE2DA401CF
:100BF800A501032E0530A4000030A500032E24080B
:100C0800A3002308C3070800963083120313A0002B
:100C18000030A1000A128A1125260A128A118312AD
:100C280003134308031D192E1A2E1D2EA301A40118
:100C3800222E0530A3000030A400222E2308C30270
:100C48000800372EC73083120313A2002B2EA20BE5
:100C58002A2E2E2E013083120313A0020030031C0B
:100C6800A103A102372E8312031320082104031DB8
:100C78003E2E3F2E262E402E080083120313A2017B
:100C8800881F472E482E502E4608031D4C2E4D2EE9
:100C9800502EA201A20A502E2208A0002008A1006E
:100CA8000030881B0130C60021085A2E0800831224
:100CB8000313A201081F612E622E6A2E4708031D26
:100CC800662E672E6A2EA201A20A6A2E2208A000AA
:100CD8002008A1000030081B0130C7002108742E2D
:100CE80008008B13643083160313920083120313D6
:100CF80091011208FC390138920012088739083826
:100D080092000B17831603138C148B170800831695
:100D18000313871007100A128A1175260A128A11FE
:100D2800643083120313A0000030A1000A128A1154
:100D3800DA260A128A11080083120313A50025086F
:100D4800A40006300310A40DFF3E031DA62E2308A1
:100D580024077F39803E0A128A1101230A128A1158
:100D68000800831203138C1CBA2EBB2EC22E8C10C3
:100D78000A128A1181250A128A11C22E79088A005C
:100D8800780E8300FE0E7E0E0900F03083160313E2
:100D98008600831603178901831603138113FF3016
:100DA8009500FF3083120313860008008312031393
:100DB8002108BC002008BB00121508008312031389
:100DC800A1002108A0002008C30008008312031313
:100DD8004308EE2E0800831203134308F32E08007D
:020DE8007F3456
:04400E00D4E0FFFFFC
:00000001FF
